:0400000059EF17F0AD
:102E8E0048656C6C6F20576F726C6400046E000E98
:102E9E00016E03506CEC17F0010E016E04506CECD9
:102EAE0017F012008E0EF66E2E0EF76E000EF86EE6
:102EBE0000EE11F010EE0CF00900F5CFEEFFE5502C
:102ECE00E150FAE10001B0EF17F0026E01B002D04E
:102EDE00829201D0828202C083FF82848294958E78
:102EEE00828082928284829483BEFCD78290959E49
:102EFE001200000E046E000E036E02D0034A042A66
:102F0E0001C0D9FF02C0DAFF014A022ADF50D8A45D
:102F1E00F5D703C001F004C002F01200000E956E4A
:102F2E009450F80B946E8290000E016E020E6CECB3
:102F3E0017F0000E016E380E6CEC17F0000E016EDD
:102F4E000C0E6CEC17F0000E016E010E6CEC17F00F
:102F5E00120095EC17F0000E0C6E000E0B6E000EAC
:102F6E000E6E000E0D6E110E016E000E026E80ECD6
:102F7E0017F001C009F002C00AF0000E086E000E34
:102F8E00076E0B4A0C2A840E0B1817E1030E0C1851
:102F9E00D8A413D0000E016E010E6CEC17F0010ECA
:102FAE000D24056E000E0E20066E0F0E05140D6E0E
:102FBE000E6A000E0C6E000E0B6E000E106E000EE2
:102FCE000F6E10D00F500D240F0B800F036E110ECD
:102FDE000F24D96E000E1020DA6EDF504DEC17F074
:102FEE000F4A102A09500F5C0A501058D8B0C9D792
:022FFE00E9D711
:00000001FF
