:04000000B2EF16F055
:102CF4008DEC16F07FEC16F012000F0EC16E94509E
:062D04000F09946E12009D
:102D0B00E721CB6B2D6EEE23EF6F01E70000000088
:102D1B000E956E9250F00B926E8050F00B806E12EF
:102D2B0000016E01C0A9FFA694A69EA69CA680A832
:102D3B00501200026E02C0A9FF01C0A8FFA69EA6FA
:102D4B009CA684F29E550EA76EAA0EA76EA682F2C3
:102D5B008EA1A8FED7A19812000B0EF66E2D0EF7C2
:102D6B006E000EF86E00EE16F010EE0FF00900F587
:102D7B00CFEEFFE550E150FAE1000159EF17F001FA
:102D8B006E0104D8A415D082500F0B0F0AD8B408CB
:102D9B00D02050D8B405D0000E206E82500F0B12ED
:102DAB000082500F0B0F0AD8A406D0010E206E0321
:102DBB00D00150D8B4F2D7FF0E12000A500B10D826
:102DCB00B418D0010E0C6E04D0D8900A360B360C0A
:102DDB002A0BAEFAD70A50085C0B500958D8A0043E
:102DEB00D00A50085E0B50095AD8900B320A320C9D
:102DFB002EF1D708C008F009C009F01200000E062A
:102E0B006E000E056E03500410D8B41CD0010E07D3
:102E1B006E04D0D89003360436072A04AEFAD7D8FE
:102E2B0090053606360350015C04500258D8A005B5
:102E3B00D00350015E0450025A0580D8900432032F
:102E4B0032072EEDD705C001F006C002F0120000CC
:102E5B000E076E030E076401D012000750010DF32D
:102E6B00500124D96EF4500220DA6EDF50836E07C6
:102E7B00C003F0010E046E032A02D0D8900436036F
:102E8B002EFCD78050F00B0410806E030E066EE8FC
:102E9B000E056E0506D8A006060528FBE10628D808
:102EAB00A4F8D7072AD6D7000E126E000E116E7A31
:102EBB00EC16F0000E96EC16F00D6E0D500F6E0E1C
:102ECB006A010E96EC16F0106E10500E10146E0F69
:102EDB0050156E010EC5EC16F0136E114A122A65D1
:102EEB000E11181210D8A406D0144A152A000E126F
:102EFB006E000E116E0E0E1318D8A40BD0155001C8
:102F0B006E000E9FEC16F014C001F0010E9FEC1634
:102F1B00F00ED00D0E1318D8A40AD0000E016E00BF
:102F2B000E9FEC16F00A0E016E010E9FEC16F014BC
:102F3B00C008F015C009F0000E0B6E0A0E0A6EE306
:102F4B00EC16F0160E0824D96E000E0920DA6EDF8F
:102F5B0050246E000E046E0A0E036E14C001F015A1
:102F6B00C002F004EC17F001C008F002C009F00039
:102F7B000E0B6E0A0E0A6EE3EC16F0160E0824D931
:102F8B006E000E0920DA6EDF50236E000E046E64A5
:102F9B000E036E14C001F015C002F004EC17F00123
:102FAB00C008F002C009F0000E0B6E0A0E0A6EE3A9
:102FBB00EC16F0160E0824D96E000E0920DA6EDF1F
:102FCB0050226E14C001F015C002F0030E046EE81F
:102FDB000E036E04EC17F0160E0124D96E000E02D0
:102FEB0020DA6EDF50216E210E016E000E026E2D67
:052FFB00EC17F06FD798
:00000001FF
