:040000000BEF00F012
:100008004282FACF01F0FBCF02F0B2ED04F07AEFB2
:0200180005F0F1
:100600000050415353574F5244204641494C555294
:10061000450050415353574F52442053554343458F
:10062000535300454E5445522050415353574F5257
:1006300044200074726965732072656D61696E652E
:10064000640054727920696E203A0073656300007B
:100650002EEC06F037501DE1080E365CD8B019D0EC
:1006600036503710D8A412D0230E116E060E126E1B
:10067000810E136EB8EC05F0000E0F6EC40EEFEC99
:1006800005F0000E0F6E0F0EEFEC05F06FEC04F0AE
:10069000E1D7000E0F6E0C0EEFEC05F02B0E0F6E77
:1006A000000E106E390E116E000E126E25EC04F065
:1006B0000F501010D8A409D0120E116E060E126E33
:1006C000800E136EB8EC05F0C5D728502910D8B4A9
:1006D00007D02406D8A02506000E296E000E286E2D
:1006E000010E116E060E126E800E136EB8EC05F040
:1006F00024502510D8B436D0C00E1B6E2450300FB5
:1007000011EC06F0330E116E060E126EC20E136E51
:10071000B8EC05F0030E216EE80E206E11D0040E29
:10072000236EB00E226E04D0000E376E000E366EB1
:100730002206D8A023062228F7E12328D8A4F4D73C
:100740002006D8A021062028EAE12128D8A4E7D74E
:10075000000E296E010E286E000E0F6E010EEFECDA
:1007600005F078D7D58E420E116E060E126EC00EB1
:10077000136EB8EC05F0CB0E1B6E26C016F027C02A
:1007800017F0000E196E0A0E186E59EC05F016508F
:10079000300F11EC06F0CA0E1B6E000E126E0A0E20
:1007A000116E26C00FF027C010F030EC05F00FC01E
:1007B00016F010C017F0000E196E0A0E186E59ECE4
:1007C00005F01650300F11EC06F0C90E1B6E26C056
:1007D0000FF027C010F0000E126E640E116E30EC98
:1007E00005F00F50300F11EC06F04B0E116E060E97
:1007F000126ECD0E136EB8EC05F0355004E10A0E02
:10080000345CD8A027D7000E0F6E010EEFEC05F078
:100810002606D8A0270626502710D8A411D0D59E8A
:10082000000E296E010E286E000E376E000E366E19
:10083000000E256E030E246E000E276EB40E266E7B
:10084000000E356E000E346E05D7000E176E000ECA
:10085000166E2ED016501124D96E17501220DA6E53
:1008600016500F24E16E17501020E26EDE50E6188D
:10087000D8B41CD016501124D96E17501220DA6E3D
:10088000DF50136E146A131E141E134A142A1650D6
:100890000F24D96E17501020DA6EDF50156E1550E8
:1008A00013240F6E000E1420106E1200164A172A21
:1008B00016500F24D96E17501020DA6EDF50D8B4BE
:1008C00009D016501124D96E17501220DA6EDF505D
:1008D000D8A4C0D7000E106E000E0F6E1200010ECD
:1008E00099EC05F01F6E0B0E1E6EB80E1D6E1D06E8
:1008F000D8A01E061D28FBE11E28D8A4F8D71F0487
:10090000D8A40FD0390E3624D96E000E3720DA6EF7
:10091000310EDF6E3650C40F1B6E2A0E11EC06F03E
:1009200012D0040E1F18D8A410D0390E3624D96E58
:10093000000E3720DA6E300EDF6E3650C40F1B6E9D
:100940002A0E11EC06F0364A372A080E36183710F0
:10095000D8A41200000E0F6E010EEFEC05F0000E91
:10096000416E12000600E9CF03F0EACF04F0E1CFB8
:1009700005F0E2CF06F0D9CF07F0DACF08F0F3CFD9
:1009800009F0F4CF0AF0F6CF0BF0F7CF0CF0F8CF68
:100990000DF0F5CF0EF0F2A409D0DE0ED624D66EFF
:1009A0000B0ED720D76E344A352AF2940EC0F5FFCD
:1009B0000DC0F8FF0CC0F7FF0BC0F6FF0AC0F4FF34
:1009C00009C0F3FF08C0DAFF07C0D9FF06C0E2FF85
:1009D00005C0E1FF04C0EAFF03C0E9FF02C0FBFF5E
:1009E00001C0FAFF42921100819A818C818E81B2FE
:1009F00002D0010E120081B402D0040E120081B6A2
:100A000002D0070E120081B802D00A0E1200818AAD
:100A1000819C818E81B202D0020E120081B402D07C
:100A2000050E120081B602D0080E120081B802D065
:100A30000B0E1200818A818C819E819E81B202D030
:100A4000030E120081B402D0060E120081B602D04D
:100A5000090E120081B802D00C0E1200FF0E120017
:100A6000000E146E000E136E11501210D8B41CD06C
:100A7000010E156E04D0D89011361236152A12AE1A
:100A8000FAD7D8901336143611500F5C1250105804
:100A9000D8A005D011500F5E1250105A1380D89074
:100AA00012321132152EEDD713C00FF014C010F012
:100AB000120018501910D8B418D0010E1A6E04D0B4
:100AC000D890183619361A2A19AEFAD71850165C6B
:100AD00019501758D8A004D01850165E1950175A3C
:100AE000D890193218321A2EF1D716C016F017C046
:100AF00017F0120000EE34F00E0EEE6AE806FDE18B
:100B00004C0EF66E0C0EF76E000EF86E00EE24F032
:100B100010EE10F00900F5CFEEFFE550E150FAE1DC
:100B200042904292000EF86E060EF76E000128EF1A
:100B300003F00F6E0F04D8A413D0F4EC04F0386E59
:100B40003828D8B407D02A50D8B404D0000E2A6E62
:100B5000385012003828D8A409D0010E2A6E06D0C9
:100B60000F50D8A403D0F4EC04F01200FF0E1200D2
:100B7000000E0F6E1350EFEC05F00CD0010E0F6E4F
:100B800011C0F6FF12C0F7FF0800F550EFEC05F0BA
:100B9000114A122A11C0F6FF12C0F7FF0800F550E3
:100BA0000009D8B41200EAD7000E956E9450F80BE5
:100BB000946E8290000E0F6E020EEFEC05F0000EA8
:100BC0000F6E380EEFEC05F0000E0F6E0C0EEFEC12
:100BD00005F0000E0F6E010EEFEC05F01200106E26
:100BE0000FB002D0829201D0828210C083FF828433
:100BF0008294958E828082928284829483BEFCD776
:100C00008290959E1200D59ED59CD596D590D58282
:100C1000D594D59A0B0ED76EDC0ED66EF294F28A6E
:100C200012001C6E000E0F6E1B50EFEC05F0010E53
:100C30000F6E1C50EFEC05F012000F0EC16E1E0E71
:100C4000936EF19E8150E009816E12000300B400A2
:100C5000010001313030313030313100D4EC05F059
:0C0C60001DEC06F003EC06F0F28E120012
:00000001FF
