:040000000BEF00F012
:100008001882FACF01F0FBCF02F00DED00F081EF7E
:1000180000F00600E9CF03F0EACF04F0E1CF05F0E5
:10002800E2CF06F0D9CF07F0DACF08F0F3CF09F026
:10003800F4CF0AF0F6CF0BF0F7CF0CF0F8CF0DF0B5
:10004800F5CF0EF0F2A202D01780F2920EC0F5FFA3
:100058000DC0F8FF0CC0F7FF0BC0F6FF0AC0F4FF95
:1000680009C0F3FF08C0DAFF07C0D9FF06C0E2FFE6
:1000780005C0E1FF04C0EAFF03C0E9FF02C0FBFFBF
:1000880001C0FAFF18921100000E106E010E0F6EDB
:1000980079EC00F017A006D0179081B202D08182C7
:1000A80001D08192C30E166E500E156E1506D8A09B
:1000B80016061528FBE11628D8A4F8D7500E116E9D
:1000C800C30E126E000E136E000E146E1106000E93
:1000D800125A135A145A1128F9E11228F7E1132871
:1000E800F5E11428D8B4D6D7F1D70F0EC16E939284
:1000F800938087EC00F0F28E1200176A189018921D
:0E010800000148EF00F0F18CF292F288120034
:00000001FF
