:040000000BEF00F012
:100008001682FACF01F0FBCF02F00DED00F078EF89
:1000180000F00600E9CF03F0EACF04F0E1CF05F0E5
:10002800E2CF06F0D9CF07F0DACF08F0F3CF09F026
:10003800F4CF0AF0F6CF0BF0F7CF0CF0F8CF0DF0B5
:10004800F5CF0EF0F2A202D01580F2920EC0F5FFA5
:100058000DC0F8FF0CC0F7FF0BC0F6FF0AC0F4FF95
:1000680009C0F3FF08C0DAFF07C0D9FF06C0E2FFE6
:1000780005C0E1FF04C0EAFF03C0E9FF02C0FBFFBF
:1000880001C0FAFF16921100000E106E010E0F6EDD
:1000980070EC00F015A006D0159081BC02D0818CC0
:1000A80001D0819C000E126E320E116E0CD0C30E60
:1000B800146E500E136E1306D8A014061328FBE115
:1000C8001428D8A4F8D71106D8A012061128EFE1F1
:1000D8001228D8B4DFD7EBD70F0EC16E939C93804C
:1000E8007EEC00F0F28E1200156A1690169200014E
:0C00F80048EF00F0F18CF292F288120048
:020000040030CA
:08000000FF01191EFF8081FFC2
:00000001FF
