:040000007BEF17F08B
:102EEA000F0EC16E8190000E936E1200000EF66EE8
:102EFA00300EF76E000EF86E0900F5CF0FF00001E4
:102F0A00A5EF17F0016E0104D8A415D082500F0B5B
:102F1A000F0AD8B408D00F50D8B405D0000E0F6EDF
:102F2A0082500F0B120082500F0B0F0AD8A406D042
:102F3A00010E0F6E03D00150D8B4F2D7FF0E120063
:102F4A00000E086E000E076E030E056EE80E046E84
:102F5A0075EC17F0000E87EC17F0066E0E0E0618C9
:102F6A00D8A40BD008BE06D0E80E075C030E08589A
:102F7A00D8B010D0074A082A0DD00D0E0618D8B4BA
:102F8A0008BE08D0085003E10704D8A003D00706FA
:102F9A00D8A00806818007C009F008C00AF009060F
:102FAA00D8A00A060928FBE10A28D8A4F8D78190F4
:102FBA0007C002F008C003F0021E031E024A032AD9
:102FCA00045002240B6E055003200C6E0B06D8A089
:102FDA000C060B28FBE10C28D8A4F8D7C30E0E6EFA
:102FEA00500E0D6E0D06D8A00E060D28FBE10E2818
:072FFA00D8B4B0D7F7D701EE
:020000040030CA
:08000000FF01191EFF8081FFC2
:00000001FF
