:0400000093EF16F074
:102C980093906BEC17F059EC16F01200506F7465B6
:102CA8006E74696F6D6574657200808A110EC26EEC
:102CB8000A0EC16E920EC06E1200958E82928280AC
:102CC8008284000E026E010E016EA8EC16F082944A
:102CD80083BEF6D7959E1200C282C2B2FED7C4CF79
:102CE80005F0066A0550036EC350056E03C006F072
:102CF80005C001F006C002F01200086E08C083FF8C
:102D080007B002D0829201D0828282908284000E23
:102D1800026E010E016EA8EC16F082941200316A60
:102D2800306AA40EF66E2C0EF76E000EF86E00EEEA
:102D380022F010EE0EF00900F5CFEEFFE550E1505D
:102D4800FAE100011DEF17F0000E046E000E036E8D
:102D58000FD0000E066E000E056E065007E1870EB6
:102D6800055CD8B003D0054A062AF7D7034A042AD7
:102D78000150035C02500458D8B01200EAD7015041
:102D8800305C02503158D8B003D0036A032A01D00E
:102D9800036A81500318FE0B0318816E304A312AEA
:102DA8000B0E30183110D8A41200000E316E000E30
:102DB800306E12000B6E000E076E0B5081EC16F091
:102DC80061EC16F00DD061EC16F0010E076E09C02B
:102DD800D9FF0AC0DAFFDF5081EC16F0094A0A2A47
:102DE80009C0D9FF0AC0DAFFDF50D8B41200EBD708
:102DF80003500410D8B418D0010E056E04D0D89032
:102E080003360436052A04AEFAD70350015C045091
:102E18000258D8A004D00350015E0450025AD8903A
:102E280004320332052EF1D701C001F002C002F0CE
:102E3800120020EE22F010EE12F00D0EDBCFE3FFB1
:102E4800E806FCE24CEC16F0120E096E000E0A6E53
:102E5800800EDEEC16F070EC16F001C020F002C017
:102E680021F020C009F021C00AF09CEC17F020C026
:102E780001F021C002F0C3EC16F0EDD7000E066E8B
:102E8800000E056E03500410D8B41CD0010E076E56
:102E980004D0D89003360436072A04AEFAD7D8905F
:102EA800053606360350015C04500258D8A005D0F8
:102EB8000350015E0450025A0580D8900432033250
:102EC800072EEDD705C001F006C002F01200000E73
:102ED800956E000E946E000E026EFA0E016EA8EC4E
:102EE80016F0000E076E380E81EC16F0000E026E1A
:102EF800FA0E016EA8EC16F0000E076E0E0E81ECAD
:102F080016F0000E026E050E016EA8EC16F0000E0B
:102F1800076E010E81EC16F0000E026E050E016EB2
:102F2800A8EC16F0000E076E060E81EC16F01200E3
:102F380009C001F00AC002F0000E046E0B0E036E09
:102F480042EC17F001C009F002C00AF00A5004E18F
:102F58005B0E095CD8A004D0000E0A6E5A0E096EEA
:102F6800000E116E000E106E11BE06D0115028E131
:102F7800040E105CD8B024D00B0E1024D96E000EAD
:102F88001120DA6E09C001F00AC002F0000E046ECA
:102F98000A0E036EFCEC16F00150300FDF6E09C00C
:102FA80001F00AC002F0000E046E0A0E036E42EC35
:102FB80017F001C009F002C00AF0104A112AD4D74C
:102FC800000E076EC00E81EC16F0000E116E010E99
:102FD800106E11BE120061EC16F0010E076E0B0E9A
:102FE8001024D96E000E1120DA6EDF5081EC16F035
:082FF8001006D8A01106EDD768
:00000001FF
