:040000000BEF00F012
:100008003182FACF01F0FBCF02F09BED00F088EFD0
:1000180001F0C2EC01F0010E44EC01F00E0AD8A484
:1000280010D0000E2F6E000E2E6E25502610D8B45C
:1000380003D02C4A2D2A0ED0000E266E010E256EF6
:1000480009D0000E44EC01F00E0AD8A402D0D58ED7
:1000580001D0D59E100E2C5C270E2D58D8A004D0A8
:10006800000E2D6E000E2C6E2CC016F02DC017F051
:10007800000E196E0A0E186E67EC01F01B0E16249E
:10008800D96E000E1720DA6EDF502B6E000E126E3E
:100098000A0E116E2CC00FF02DC010F01BEC01F0F1
:1000A8000FC016F010C017F0000E196E0A0E186E69
:1000B80067EC01F01B0E1624D96E000E1720DA6EBD
:1000C800DF502A6E000E126E640E116E2CC00FF0F7
:1000D8002DC010F01BEC01F00FC016F010C017F087
:1000E800000E196E0A0E186E67EC01F01B0E16242E
:1000F800D96E000E1720DA6EDF50296E2CC00FF073
:100108002DC010F0030E126EE80E116E1BEC01F0FC
:100118001B0E0F24D96E000E1020DA6EDF50286EE9
:10012800280E0F6E000E106EEFEC00F074D706006C
:10013800E9CF03F0EACF04F0E1CF05F0E2CF06F013
:10014800D9CF07F0DACF08F0F3CF09F0F4CF0AF0EF
:10015800F6CF0BF0F7CF0CF0F8CF0DF0F5CF0EF08F
:10016800F2A41BD0DE0ED624D66E0B0ED720D76E87
:100178002E4A2F2AC90E2E182F10D8A40DD0000EE3
:100188002F6E000E2E6E000E2D6E000E2C6E000EC1
:10019800266E000E256ED59EF2940EC0F5FF0DC09A
:1001A800F8FF0CC0F7FF0BC0F6FF0AC0F4FF09C048
:1001B800F3FF08C0DAFF07C0D9FF06C0E2FF05C099
:1001C800E1FF04C0EAFF03C0E9FF02C0FBFF01C072
:1001D800FAFF31921100000E156E030E156401D05E
:1001E80012001550010DF3500F24D96EF450102051
:1001F800DA6EDF50836E15C011F0010E126E112AEF
:1002080002D0D8901236112EFCD78050F00B121065
:10021800806E030E146EE80E136E1306D8A0140633
:100228001328FBE11428D8A4F8D7152AD6D7000E2E
:10023800146E000E136E11501210D8B41CD0010E9B
:10024800156E04D0D89011361236152A12AEFAD788
:10025800D8901336143611500F5C12501058D8A08D
:1002680005D011500F5E1250105A1380D8901232D8
:100278001132152EEDD713C00FF014C010F0120074
:100288000F6E0F04D8A417D082500F0B0F0AD8A4F2
:1002980007D02750D8B404D0000E276E3050120073
:1002A80082500F0B0F0AD8B40CD0010E276E825063
:1002B8000F0B306E06D00F50D8A403D082500F0B0E
:1002C8001200FF0E120018501910D8B418D0010EE1
:1002D8001A6E04D0D890183619361A2A19AEFAD7D9
:1002E8001850165C19501758D8A004D01850165E2C
:1002F8001950175AD890193218321A2EF1D716C039
:1003080016F017C017F01200306A2F6A2E6A2D6A8D
:100318002C6A720EF66E030EF76E000EF86E00EE83
:100328001BF010EE11F00900F5CFEEFFE550E1509B
:10033800FAE13190319200010DEF00F0D59ED59C85
:10034800D596D590D592D594D59A0B0ED76EDC0E4E
:10035800D66EF294F28A1200000E956E9250F00B4F
:10036800926E8050F00B806E1200E721CB6B2D6EE1
:0B037800EE23EF6F010001E700000022
:10038400B0EC01F0CAEC01F0A2EC01F0F28E120024
:0C0394000F0EC16E94500F09946E120001
:00000001FF
