:040000000BEF00F012
:100008004482FACF01F0FBCF02F01CED04F098EF28
:0200180005F0F1
:1006000000434F554E54494E4720444953504C41A6
:100610005900454550524F4D2053544F5241474584
:05062000003130000074
:1006260022EC06F0214A222A970E21182210D8A47D
:100636000AD0422A390E426402D0010E256E000EFF
:10064600226E000E216E2550D8B434D0000E206ED6
:10065600090E1F6E20BE2CD0390E1F24D96E000E37
:100666002020DA6E390EDF6423D0390E1F24D96EAE
:10067600000E2020DA6E300EDF6E1F502010D8B428
:1006860013D0FF0E1B6EFF0E1C6E1FC01DF020C088
:100696001EF01B501D261C501E22390E1D24D96E1D
:1006A600000E1E20DA6EDF2A1F06D8A02006D2D73B
:1006B600000E256E3704D8A411D0010E116E060E59
:1006C600126E800E136E03EC05F0390E116E000EDD
:1006D600126EC30E136E03EC05F028D0120E116EC7
:1006E600060E126E810E136E03EC05F00A0E361816
:1006F600D8A409D0210E116E060E126EC10E136E0D
:1007060003EC05F006D0C20E116E3650300F04EC25
:1007160006F0C30E116E2E0E04EC06F02B0E116EB3
:10072600000E126EC50E136E03EC05F09CEC03F082
:1007360079D7010E56EC05F01A6E000E56EC05F050
:10074600196E3704D8A406D01A04D8A403D033EC03
:1007560005F012003704D8A41CD0040E1918D8A42A
:1007660018D0D58E245004E11E0E235CD8A01200AA
:10077600D59E010E276E000E246E000E236E000E0F
:10078600376E000E0F6E010ED0EC05F0D2EC04F0C1
:1007960012003750D8A418D0040E1A18D8A414D0B2
:1007A6002750D8A407D0362A0B0E3618D8A402D064
:1007B600010E366E000E276ED2EC04F0000E0F6EA0
:1007C600010ED0EC05F012003750D8A410D0070E59
:1007D6001A18D8A40CD0362E02D00A0E366ED2ECD9
:1007E60004F0000E0F6E010ED0EC05F0120037502B
:1007F600D8A41AD0070E1918D8A416D0D58E24500E
:1008060004E11E0E235CD8A01200D59E000E246EB5
:10081600000E236E010E366E000E0F6E010ED0EC2A
:1008260005F0010E376E1200000E246E000E236EC8
:1008360012000600E9CF03F0EACF04F0E1CF05F09D
:10084600E2CF06F0D9CF07F0DACF08F0F3CF09F000
:10085600F4CF0AF0F6CF0BF0F7CF0CF0F8CF0DF08F
:10086600F5CF0EF0F2A409D0DE0ED624D66E0B0E0E
:10087600D720D76E234A242AF2940EC0F5FF0DC066
:10088600F8FF0CC0F7FF0BC0F6FF0AC0F4FF09C063
:10089600F3FF08C0DAFF07C0D9FF06C0E2FF05C0B4
:1008A600E1FF04C0EAFF03C0E9FF02C0FBFF01C08D
:1008B600FAFF44921100819A818C818E81B202D016
:1008C600010E120081B402D0040E120081B602D0CD
:1008D600070E120081B802D00A0E1200818A819C8E
:1008E600818E81B202D0020E120081B402D0050EB2
:1008F600120081B602D0080E120081B802D00B0E8B
:100906001200818A818C819E819E81B202D0030E63
:10091600120081B402D0060E120081B602D0090E72
:10092600120081B802D00C0E1200FF0E1200000E4B
:10093600146E10AE06D00F6C101ED8B0102A010E21
:10094600146E12AE04D0116C121ED8B0122A1150B9
:100956001210D8B418D0010E136E04D0D8901136E8
:100966001236132A12AEFAD711500F5C12501058D5
:10097600D8A004D011500F5E1250105AD8901232DF
:100986001132132EF1D71450D8B404D00F6C101EA8
:10099600D8B0102A0FC00FF010C010F01200365059
:1009A6000A0DF350F60F286E000E156E000E146E2B
:1009B60015501DE10A0E145CD8B019D02B0E142464
:1009C600D96E000E1520DA6E285014240F6E000E14
:1009D6001520106E000E126E640E116E77EC05F087
:1009E6000F5019EC06F0DF6E144A152AE1D72B0ECC
:1009F6001424D96E000E1520DA6E000EDF6E12007A
:100A0600000E0F6E1350D0EC05F016D0010E0F6ECF
:100A160011C0F6FF12C0F7FFF86A050EF76403D09F
:100A26000800F55005D0F6CFD9FFF7CFDAFFDF5033
:100A3600D0EC05F0114A122A11C0F6FF12C0F7FFDA
:100A4600F86A050EF76403D00800F55005D0F6CF16
:100A5600D9FFF7CFDAFFDF500009D8B41200D6D796
:100A6600000E186E000E176E18501CE10A0E175C69
:100A7600D8B01200390E1724D96E000E1820DA6E7F
:100A8600DF50156E26C00FF0106A000E126E640E4F
:100A9600116E9AEC04F00F50E4EC05F0262A174A82
:100AA600182AE2D712000F6E0F04D8A415D05EECF8
:100AB60004F0296E2928D8A407D03850D8B404D019
:100AC600000E386E2A5012002928D8B40BD0010E19
:100AD600386E29C02AF006D00F50D8A403D05EEC99
:100AE60004F01200FF0E120011501210D8B418D0E4
:100AF600010E136E04D0D89011361236132A12AE98
:100B0600FAD711500F5C12501058D8A004D01150CB
:100B16000F5E1250105AD89012321132132EF1D79E
:100B26000FC00FF010C010F0120000EE21F0150EED
:100B3600EE6AE806FDE1540EF66E0C0EF76E000E38
:100B4600F86E00EE36F010EE0EF00900F5CFEEFF6F
:100B5600E550E150FAE144904492000EF86E00012F
:100B660013EF03F0000E956E9450F80B946E82907E
:100B7600000E0F6E020ED0EC05F0000E0F6E380E52
:100B8600D0EC05F0000E0F6E0C0ED0EC05F0000E4A
:100B96000F6E010ED0EC05F01200106E0FB002D0F1
:100BA600829201D0828210C083FF82848294958EC5
:100BB600828082928284829483BEFCD78290959EA4
:100BC6001200166E16C0A9FF15C0A8FFA69EA69C09
:100BD600A684F29E550EA76EAA0EA76EA682F28E68
:100BE600A1A8FED7A1981200D59CD596D590D582FE
:100BF600D594D59A0B0ED76EDC0ED66EF294F28A89
:100C06001200126E000E0F6E1150D0EC05F0010EA0
:100C16000F6E1250D0EC05F012000F0EC16E1E0EB4
:100C2600936EF19E8150E009816E12000F6E0FC027
:100C3600A9FFA694A69EA69CA680A8501200B5EC75
:100C460005F010EC06F0F7EC05F0F28E120001014B
:0C0C5600013030303030303030303000B1
:00000001FF
