:04000000C6EF04F053
:1006000000434F554E54494E4720444953504C41A6
:1006100059004D4F4449465920434F554E54000010
:100620002DEC05F00304D8A455D01F2A150E1F1871
:10063000D8A408D00E2A390E0E6404D0010E1E6E06
:10064000000E1F6E1E50D8B434D0000E1B6E090E63
:100650001A6E1BBE2CD0050E1A24D96E000E1B205C
:10066000DA6E390EDF6423D0050E1A24D96E000E1F
:100670001B20DA6E300EDF6E1A501B10D8B413D068
:10068000FF0E166EFF0E176E1AC018F01BC019F081
:100690001650182617501922050E1824D96E000E70
:1006A0001920DA6EDF2A1A06D8A01B06D2D7000E50
:1006B0001E6E010E126E060E136E800E146E75EC19
:1006C00004F0050E126E000E136EC30E146E75EC60
:1006D00004F02FD0120E126E060E136E820E146EE0
:1006E00075EC04F0010E1C24106E000E1D20116E1E
:1006F000010E136EF40E126E3DEC04F010C01CF0EF
:1007000011C01DF01DBE06D01D500DE1FA0E1C5C7F
:10071000D8B009D0050E126E000E136EC30E146E03
:1007200075EC04F006D00150C30F126E200E10ECD1
:1007300005F09CEC03F076D7010EA5EC04F0156EE5
:10074000000E146E320E136E1306D8A01406132872
:10075000FBE11428D8A4F8D71504D8A40DD0035071
:10076000D8A402D0010E01D0000E036E000E106E50
:10077000010EFCEC04F012000350D8A40ED0040EBD
:100780001518D8A40AD00106D8A0020602AE12009D
:10079000000E026E090E016E12000350D8A417D08D
:1007A000070E1518D8A413D0050E0124D96E000E1B
:1007B0000220DA6EDF2A390EDF641200050E0124F2
:1007C000D96E000E0220DA6E300EDF6E120003507A
:1007D000D8A412000A0E1518D8A41200050E012480
:1007E000D96E000E0220DA6EDF06300EDF601200D6
:1007F000050E0124D96E000E0220DA6E390EDF6E6E
:100800001200819A818C818E81B202D0010E120079
:1008100081B402D0040E120081B602D0070E12007D
:1008200081B802D00A0E1200818A819C818E81B229
:1008300002D0020E120081B402D0050E120081B661
:1008400002D0080E120081B802D00B0E1200818A6D
:10085000818C819E819E81B202D0030E120081B4F0
:1008600002D0060E120081B602D0090E120081B825
:1008700002D00C0E1200FF0E1200000E156E11AE0B
:1008800006D0106C111ED8B0112A010E156E13AED1
:1008900004D0126C131ED8B0132A12501310D8B4FF
:1008A00018D0010E146E04D0D89012361336142AC4
:1008B00013AEFAD71250105C13501158D8A004D0C0
:1008C0001250105E1350115AD89013321232142E57
:1008D000F1D71550D8B404D0106C111ED8B0112A1D
:1008E00010C010F011C011F01200000E106E145064
:1008F000FCEC04F016D0010E106E12C0F6FF13C00F
:10090000F7FFF86A050EF76403D00800F55005D02C
:10091000F6CFE9FFF7CFEAFFEF50FCEC04F0124A04
:10092000132A12C0F6FF13C0F7FFF86A050EF7642A
:1009300003D00800F55005D0F6CFE9FFF7CFEAFF66
:10094000EF500009D8B41200D6D7106E1004D8A406
:1009500015D001EC04F0206E2028D8A407D0045054
:10096000D8B404D0000E046E215012002028D8B450
:100970000BD0010E046E20C021F006D01050D8A478
:1009800003D001EC04F01200FF0E1200216A206A6D
:100990001F6A1E6A1D6A1C6A4A0EF66E0A0EF76E00
:1009A000000EF86E00EE01F010EE0FF00900F5CF2A
:1009B000EEFFE550E150FAE1000EF86E000110EF95
:1009C00003F0000E956E9450F80B946E8290000E1A
:1009D000106E020EFCEC04F0000E106E380EFCECF3
:1009E00004F0000E106E0C0EFCEC04F0000E106E05
:1009F000010EFCEC04F01200116E10B002D08292D5
:100A000001D0828211C083FF82848294958E82807D
:100A100082928284829483BEFCD78290959E12003B
:100A2000136E000E106E1250FCEC04F0010E106EEE
:100A30001350FCEC04F012000F0EC16E1E0E936EEC
:100A4000F19E8150E009816E1200090001013030F1
:090A50003030303030303030001D
:0A0A5A00E1EC04F01CEC05F01200C2
:00000001FF
