:040000008FEF17F077
:102F060088EC17F098EC17F0FDD70F0EC16E000E87
:102F1600816E000E936E1200066A056A046A036AE1
:102F2600026A016A000183EF17F0034A042A110EB0
:102F3600031813E1270E0418D8A40FD0000E046E50
:102F4600000E036E054A062A200E05180610D8A4A0
:102F560004D0000E066E000E056E065004E1180E33
:102F6600055CD8A011D005500008076E1F0E072675
:102F7600010E086E072A02D0D8900836072EFCD715
:102F86000850FF0A81161200065004E1100E055C77
:102F9600D8A010D005500008076E170E0726010EA0
:102FA600086E072A02D0D8900836072EFCD708509C
:102FB60081121200065004E1080E055CD8A010D05C
:102FC60005C007F0F80E0726010E086E072A02D084
:102FD600D8900836072EFCD70850FF0A8116120033
:102FE60005C007F0010E086E072A02D0D8900836F1
:0A2FF600072EFCD7085081121200CC
:00000001FF
